{
  "contractName": "CattleTracker",
  "abi": [
    {
      "inputs": [
        {
          "internalType": "uint256",
          "name": "",
          "type": "uint256"
        }
      ],
      "name": "cattle",
      "outputs": [
        {
          "internalType": "uint256",
          "name": "id",
          "type": "uint256"
        },
        {
          "internalType": "string",
          "name": "breed",
          "type": "string"
        },
        {
          "internalType": "address",
          "name": "currentOwner",
          "type": "address"
        }
      ],
      "stateMutability": "view",
      "type": "function",
      "constant": true
    },
    {
      "inputs": [
        {
          "internalType": "uint256",
          "name": "",
          "type": "uint256"
        }
      ],
      "name": "cattleIds",
      "outputs": [
        {
          "internalType": "uint256",
          "name": "",
          "type": "uint256"
        }
      ],
      "stateMutability": "view",
      "type": "function",
      "constant": true
    },
    {
      "inputs": [
        {
          "internalType": "uint256",
          "name": "_id",
          "type": "uint256"
        },
        {
          "internalType": "string",
          "name": "_breed",
          "type": "string"
        },
        {
          "internalType": "string",
          "name": "_health",
          "type": "string"
        },
        {
          "internalType": "string",
          "name": "_location",
          "type": "string"
        }
      ],
      "name": "registerAnimal",
      "outputs": [],
      "stateMutability": "nonpayable",
      "type": "function"
    },
    {
      "inputs": [
        {
          "internalType": "uint256",
          "name": "_id",
          "type": "uint256"
        },
        {
          "internalType": "string",
          "name": "_health",
          "type": "string"
        },
        {
          "internalType": "string",
          "name": "_location",
          "type": "string"
        }
      ],
      "name": "addUpdate",
      "outputs": [],
      "stateMutability": "nonpayable",
      "type": "function"
    },
    {
      "inputs": [
        {
          "internalType": "uint256",
          "name": "_id",
          "type": "uint256"
        }
      ],
      "name": "getHistory",
      "outputs": [
        {
          "components": [
            {
              "internalType": "string",
              "name": "healthStatus",
              "type": "string"
            },
            {
              "internalType": "string",
              "name": "location",
              "type": "string"
            },
            {
              "internalType": "uint256",
              "name": "timestamp",
              "type": "uint256"
            }
          ],
          "internalType": "struct CattleTracker.StatusUpdate[]",
          "name": "",
          "type": "tuple[]"
        }
      ],
      "stateMutability": "view",
      "type": "function",
      "constant": true
    },
    {
      "inputs": [],
      "name": "getCattleCount",
      "outputs": [
        {
          "internalType": "uint256",
          "name": "",
          "type": "uint256"
        }
      ],
      "stateMutability": "view",
      "type": "function",
      "constant": true
    }
  ],
  "bytecode": "0x608060405234801561001057600080fd5b50610de2806100206000396000f3fe608060405234801561001057600080fd5b50600436106100625760003560e01c80633c6167e7146100675780635652797d146100835780638fe5531d146100a1578063a74a0c0a146100d3578063bbc2523b14610103578063c8691b2a1461011f575b600080fd5b610081600480360381019061007c91906107cb565b61014f565b005b61008b61024c565b6040516100989190610b56565b60405180910390f35b6100bb60048036038101906100b691906107a2565b610259565b6040516100ca93929190610b71565b60405180910390f35b6100ed60048036038101906100e891906107a2565b61032b565b6040516100fa9190610b56565b60405180910390f35b61011d6004803603810190610118919061084a565b61034f565b005b610139600480360381019061013491906107a2565b6104e0565b6040516101469190610af4565b60405180910390f35b60008060008581526020019081526020016000206000015414156101a8576040517f08c379a000000000000000000000000000000000000000000000000000000000815260040161019f90610b36565b60405180910390fd5b6000808481526020019081526020016000206003016040518060600160405280848152602001838152602001428152509080600181540180825580915050600190039060005260206000209060030201600090919091909150600082015181600001908051906020019061021d929190610682565b50602082015181600101908051906020019061023a929190610682565b50604082015181600201555050505050565b6000600180549050905090565b600060205280600052604060002060009150905080600001549080600101805461028290610cf4565b80601f01602080910402602001604051908101604052809291908181526020018280546102ae90610cf4565b80156102fb5780601f106102d0576101008083540402835291602001916102fb565b820191906000526020600020905b8154815290600101906020018083116102de57829003601f168201915b5050505050908060020160009054906101000a900473ffffffffffffffffffffffffffffffffffffffff16905083565b6001818154811061033b57600080fd5b906000526020600020016000915090505481565b600080600086815260200190815260200160002060000154146103a7576040517f08c379a000000000000000000000000000000000000000000000000000000000815260040161039e90610b16565b60405180910390fd5b60008060008681526020019081526020016000209050848160000181905550838160010190805190602001906103de929190610682565b50338160020160006101000a81548173ffffffffffffffffffffffffffffffffffffffff021916908373ffffffffffffffffffffffffffffffffffffffff1602179055508060030160405180606001604052808581526020018481526020014281525090806001815401808255809150506001900390600052602060002090600302016000909190919091506000820151816000019080519060200190610486929190610682565b5060208201518160010190805190602001906104a3929190610682565b5060408201518160020155505060018590806001815401808255809150506001900390600052602060002001600090919091909150555050505050565b6060600080838152602001908152602001600020600301805480602002602001604051908101604052809291908181526020016000905b82821015610677578382906000526020600020906003020160405180606001604052908160008201805461054a90610cf4565b80601f016020809104026020016040519081016040528092919081815260200182805461057690610cf4565b80156105c35780601f10610598576101008083540402835291602001916105c3565b820191906000526020600020905b8154815290600101906020018083116105a657829003601f168201915b505050505081526020016001820180546105dc90610cf4565b80601f016020809104026020016040519081016040528092919081815260200182805461060890610cf4565b80156106555780601f1061062a57610100808354040283529160200191610655565b820191906000526020600020905b81548152906001019060200180831161063857829003601f168201915b5050505050815260200160028201548152505081526020019060010190610517565b505050509050919050565b82805461068e90610cf4565b90600052602060002090601f0160209004810192826106b057600085556106f7565b82601f106106c957805160ff19168380011785556106f7565b828001600101855582156106f7579182015b828111156106f65782518255916020019190600101906106db565b5b5090506107049190610708565b5090565b5b80821115610721576000816000905550600101610709565b5090565b600061073861073384610be0565b610baf565b90508281526020810184848401111561075057600080fd5b61075b848285610cb2565b509392505050565b600082601f83011261077457600080fd5b8135610784848260208601610725565b91505092915050565b60008135905061079c81610d95565b92915050565b6000602082840312156107b457600080fd5b60006107c28482850161078d565b91505092915050565b6000806000606084860312156107e057600080fd5b60006107ee8682870161078d565b935050602084013567ffffffffffffffff81111561080b57600080fd5b61081786828701610763565b925050604084013567ffffffffffffffff81111561083457600080fd5b61084086828701610763565b9150509250925092565b6000806000806080858703121561086057600080fd5b600061086e8782880161078d565b945050602085013567ffffffffffffffff81111561088b57600080fd5b61089787828801610763565b935050604085013567ffffffffffffffff8111156108b457600080fd5b6108c087828801610763565b925050606085013567ffffffffffffffff8111156108dd57600080fd5b6108e987828801610763565b91505092959194509250565b60006109018383610a7f565b905092915050565b61091281610c76565b82525050565b600061092382610c20565b61092d8185610c43565b93508360208202850161093f85610c10565b8060005b8581101561097b578484038952815161095c85826108f5565b945061096783610c36565b925060208a01995050600181019050610943565b50829750879550505050505092915050565b600061099882610c2b565b6109a28185610c54565b93506109b2818560208601610cc1565b6109bb81610d84565b840191505092915050565b60006109d182610c2b565b6109db8185610c65565b93506109eb818560208601610cc1565b6109f481610d84565b840191505092915050565b6000610a0c601883610c65565b91507f416e696d616c20494420616c72656164792065786973747300000000000000006000830152602082019050919050565b6000610a4c601583610c65565b91507f416e696d616c20646f6573206e6f7420657869737400000000000000000000006000830152602082019050919050565b60006060830160008301518482036000860152610a9c828261098d565b91505060208301518482036020860152610ab6828261098d565b9150506040830151610acb6040860182610ad6565b508091505092915050565b610adf81610ca8565b82525050565b610aee81610ca8565b82525050565b60006020820190508181036000830152610b0e8184610918565b905092915050565b60006020820190508181036000830152610b2f816109ff565b9050919050565b60006020820190508181036000830152610b4f81610a3f565b9050919050565b6000602082019050610b6b6000830184610ae5565b92915050565b6000606082019050610b866000830186610ae5565b8181036020830152610b9881856109c6565b9050610ba76040830184610909565b949350505050565b6000604051905081810181811067ffffffffffffffff82111715610bd657610bd5610d55565b5b8060405250919050565b600067ffffffffffffffff821115610bfb57610bfa610d55565b5b601f19601f8301169050602081019050919050565b6000819050602082019050919050565b600081519050919050565b600081519050919050565b6000602082019050919050565b600082825260208201905092915050565b600082825260208201905092915050565b600082825260208201905092915050565b6000610c8182610c88565b9050919050565b600073ffffffffffffffffffffffffffffffffffffffff82169050919050565b6000819050919050565b82818337600083830152505050565b60005b83811015610cdf578082015181840152602081019050610cc4565b83811115610cee576000848401525b50505050565b60006002820490506001821680610d0c57607f821691505b60208210811415610d2057610d1f610d26565b5b50919050565b7f4e487b7100000000000000000000000000000000000000000000000000000000600052602260045260246000fd5b7f4e487b7100000000000000000000000000000000000000000000000000000000600052604160045260246000fd5b6000601f19601f8301169050919050565b610d9e81610ca8565b8114610da957600080fd5b5056fea2646970667358221220cb98de34b391299bef278966ef9d3b993bac96a8d1fbb807a7e3261d79dd4e9564736f6c63430008000033",
  "immutableReferences": {},
  "source": "// SPDX-License-Identifier: MIT\r\npragma solidity ^0.8.0;\r\n\r\ncontract CattleTracker {\r\n    struct StatusUpdate {\r\n        string healthStatus;\r\n        string location;\r\n        uint256 timestamp;\r\n    }\r\n\r\n    struct Animal {\r\n        uint256 id;\r\n        string breed;\r\n        address currentOwner;\r\n        StatusUpdate[] history; // Array to track timeline\r\n    }\r\n\r\n    mapping(uint256 => Animal) public cattle;\r\n    uint256[] public cattleIds;\r\n\r\n    // Register animal for the first time\r\n    function registerAnimal(uint256 _id, string memory _breed, string memory _health, string memory _location) public {\r\n        require(cattle[_id].id == 0, \"Animal ID already exists\");\r\n        \r\n        Animal storage newAnimal = cattle[_id];\r\n        newAnimal.id = _id;\r\n        newAnimal.breed = _breed;\r\n        newAnimal.currentOwner = msg.sender;\r\n        \r\n        // Push the initial status to history\r\n        newAnimal.history.push(StatusUpdate(_health, _location, block.timestamp));\r\n        cattleIds.push(_id);\r\n    }\r\n\r\n    // Add a new update (e.g., vet visit or relocation)\r\n    function addUpdate(uint256 _id, string memory _health, string memory _location) public {\r\n        require(cattle[_id].id != 0, \"Animal does not exist\");\r\n        cattle[_id].history.push(StatusUpdate(_health, _location, block.timestamp));\r\n    }\r\n\r\n    // Get the full history of a specific cow\r\n    function getHistory(uint256 _id) public view returns (StatusUpdate[] memory) {\r\n        return cattle[_id].history;\r\n    }\r\n\r\n    function getCattleCount() public view returns (uint256) {\r\n        return cattleIds.length;\r\n    }\r\n}",
  "sourcePath": "C:\\Users\\kingd\\OneDrive\\Documenti\\GitHub\\Cattle-Record-Tracker\\contracts\\CattleTracker.sol",
  "compiler": {
    "name": "solc",
    "version": "0.8.0+commit.c7dfd78e.Emscripten.clang"
  },
  "schemaVersion": "3.4.16",
  "updatedAt": "2026-02-05T03:06:11.698Z",
  "networkType": "ethereum",
  "devdoc": {
    "kind": "dev",
    "methods": {},
    "version": 1
  },
  "userdoc": {
    "kind": "user",
    "methods": {},
    "version": 1
  }
}